:100000000C945D000C9485000C9485000C94850084
:100010000C9485000C9485000C9485000C9485004C
:100020000C9485000C9485000C9485000C94A50715
:100030000C9485000C9485000C9485000C9485002C
:100040000C942D060C9485000C94FB050C94D5059E
:100050000C9485000C9485000C9485000C9485000C
:100060000C9477060C948500000000080002010043
:100070000003040700000000000000000000000072
:10008000250028002B0000000000240027002A0083
:10009000040404040404040402020202020203032E
:1000A0000303030301020408102040800102040836
:1000B0001020010204081020660811241FBECFEF93
:1000C000D8E0DEBFCDBF22E0ACE3B1E001C01D92BD
:1000D000AA3EB207E1F711E0A0E0B1E0E2EEFDE1F7
:1000E00002C005900D92AC33B107D9F710E0CDE511
:1000F000D0E004C02197FE010E943E0CCC35D10710
:10010000C9F70E94BF080C94EF0E0C94000090E019
:10011000FC01EC55FF4F2491FC01E057FF4F849107
:10012000882399F090E0880F991FFC01EA57FF4F50
:10013000A591B491FC01E458FF4F859194918FB73C
:10014000F894EC91E22BEC938FBF0895CF92DF925D
:10015000EF92FF920F931F93CF93DF936C017A017D
:100160008B01C0E0D0E0CE15DF0589F0D8016D919C
:100170008D01D601ED91FC910190F081E02DC60139
:100180000995892B11F47E0102C02196ECCFC7019D
:10019000DF91CF911F910F91FF90EF90DF90CF9063
:1001A0000895FC01918D828D981761F0828DDF0199
:1001B000A80FB11D5D968C91928D9F5F9F73928F5A
:1001C00090E008958FEF9FEF0895FC01918D828D4F
:1001D000981731F0828DE80FF11D858D90E008951C
:1001E0008FEF9FEF0895FC01918D228D892F90E074
:1001F000805C9F4F821B91098F739927089589E234
:1002000092E00E94F30021E0892B09F420E0822F84
:100210000895FC01848DDF01A80FB11DA35ABF4FC3
:100220002C91848D90E001968F739927848FA689F5
:10023000B7892C93A089B1898C9180648C93938D1C
:10024000848D981306C00288F389E02D80818F7D0C
:1002500080830895EF92FF920F931F93CF93DF93C4
:10026000EC0181E0888F9B8D8C8D981305C0E88907
:10027000F989808185FD24C0F62E0B8D10E00F5F7B
:100280001F4F0F731127E02E8C8DE8120CC00FB694
:1002900007FCFACFE889F989808185FFF5CFCE0187
:1002A0000E940901F1CF8B8DFE01E80FF11DE35A89
:1002B000FF4FF0820B8FEA89FB898081806207C043
:1002C000EE89FF896083E889F98980818064808371
:1002D00081E090E0DF91CF911F910F91FF90EF901F
:1002E0000895CF93DF93EC01888D8823C9F0EA89C4
:1002F000FB89808185FD05C0A889B9898C9186FD1F
:100300000FC00FB607FCF5CF808185FFF2CFA8891B
:10031000B9898C9185FFEDCFCE010E940901E7CF0D
:10032000DF91CF91089580E090E0892B29F00E9421
:10033000FF0081110C940000089590E0FC01E85941
:10034000FF4F3491FC01EC55FF4F2491FC01E05725
:10035000FF4FE491EE2309F43BC0332339F13330EE
:1003600091F038F43130A9F0323001F584B58F7D49
:1003700012C0373091F03830A1F03430B9F48091A8
:1003800080008F7D03C0809180008F7780938000F4
:100390000DC084B58F7784BD09C08091B0008F7780
:1003A00003C08091B0008F7D8093B000F0E0EE0F2D
:1003B000FF1FE458FF4FA591B4918FB7F894EC91CB
:1003C000611103C020952E2301C02E2B2C938FBFCB
:1003D00008953FB7F8948091F4019091F501A091B0
:1003E000F601B091F70126B5A89B05C02F3F19F083
:1003F0000196A11DB11D3FBFBA2FA92F982F8827A5
:10040000820F911DA11DB11DBC01CD0142E0660FFF
:10041000771F881F991F4A95D1F708958F929F9251
:10042000AF92BF92CF92DF92EF92FF926B017C016D
:100430000E94E9014B015C01C114D104E104F10403
:10044000F1F00E94E901DC01CB0188199909AA09A0
:10045000BB09883E9340A105B10570F321E0C21AA3
:10046000D108E108F10888EE880E83E0981EA11CEF
:10047000B11CC114D104E104F10419F7DDCFFF90E0
:10048000EF90DF90CF90BF90AF909F908F900895A6
:1004900085ED8093BC008091BC0084FDFCCF109260
:1004A000FA0108954091A601262F30E0240F311D56
:1004B00021323105DCF42091FA012430C9F4FC0129
:1004C00080E090E0861758F43091A6012191DC017C
:1004D000AC57BE4FA30FB11D2C930196F3CF809163
:1004E000A601680F6093A60180E0089581E0089559
:1004F00082E00895089581E090E03091FE0120911E
:10050000FD01321710F480E090E0919581959109FA
:1005100008958091FE019091FD01891730F48F5F5D
:100520008093FE0180E090E008958FEF9FEF0895A3
:100530008091FD0190E02091FE01821B91090895B8
:10054000CF92DF92EF92FF920F931F93CF93DF939F
:100550007C01262F972F8A0180918301882391F0B7
:10056000C62FD72F6E01C40ED51ECC15DD0571F038
:100570006991D701ED91FC910190F081E02DC701C7
:100580000995F3CF642F822F0E945202C801DF9198
:10059000CF911F910F91FF90EF90DF90CF90089532
:1005A000CF93DF931F92CDB7DEB76983209183018C
:1005B0002223D1F02091FB01203240F021E030E0F5
:1005C000FC013383228380E090E015C08091FC0120
:1005D000E82FF0E0ED59FE4F998190838F5F809373
:1005E000FC018093FB0105C061E0CE0101960E94F1
:1005F000520281E090E00F90DF91CF910895CF9269
:10060000DF92EF92FF92CF93DF93EC01603282E0B2
:1006100078070CF03DC077FD06C0653B71052CF0F6
:1006200064EB70E002C060E070E0898128E830E0AF
:100630006901C81AD10887FDD394CC0CDD1CCC0C01
:10064000DD1C0D2C000CEE08FF088A8128E532E045
:10065000281B310987FD3395220F331F220F331FCB
:10066000C901330FAA0BBB0B9C01AD012C193D092D
:100670004E095F09DB010E94B60E24EB30E040E03A
:1006800050E00E948C0EC20ED31EE41EF51EB60171
:1006900088818C3080F5998148E850E0491B5109E8
:1006A00097FD5395440F551F440F551F6417750749
:1006B00084F09A8128E532E0291B310997FD3395B2
:1006C000220F331F220F331FAB01261737070CF4FD
:1006D000A90142505109440F551F2FB7F89490E0DB
:1006E000FC01EE0FFF1F8E0F9F1FFC01E15CFE4F10
:1006F000528341832FBFDF91CF91FF90EF90DF9026
:10070000CF9008950F931F93CF93DF931F92CDB790
:10071000DEB78C01DC018C918C3008F055C0862F3F
:1007200069830E948700F8018081E82FF0E09F0133
:10073000220F331FE20FF31FE15CFE4F69816F73DD
:100740009081907C692B6083D80111961C9211973F
:1007500012961C926CE00E94320CBCE08B9FB001A0
:10076000112440E050E09A01260F371FF901EE0FE7
:10077000FF1F2E0F3F1FF901E15CFE4F908196FD98
:1007800016C04F5F5F4F4C30510569F781110FC0A4
:100790001092800082E08093810010928500109278
:1007A0008400B19A80916F00826080936F00D801BD
:1007B000EC91F0E0CF01880F991FE80FF91FE15C81
:1007C000FE4F808180648083F80180810F90DF91EB
:1007D000CF911F910F910895FC0190913E019C30A3
:1007E000A0F481E0890F80933E019083892F90E0EF
:1007F000FC01EE0FFF1F8E0F9F1FFC01E15CFE4FFF
:1008000088EB9BE09283818308958FEF8083089526
:10081000CF93FC01C48121E020938301C0933C016C
:100820001092FC011092FB018385682B86EC92E00C
:100830000E94D0028091FB01813208F046C0909165
:10084000FA019111FCCF92E09093FA0191E090931C
:10085000F9019FEF9093CB011092ED018093EC0191
:10086000A3E6B1E02CEC31E0F9019E2F921B981722
:1008700018F49D919193F9CF1092EE018091EE01C1
:10088000CC0FC82BC093EE018091F801813061F448
:100890001092F8018091EE018093BB008091BC0022
:1008A00083FDF8CF85EC01C085EE8093BC0080917C
:1008B000FA018230E1F38091CB018F3F31F08091DA
:1008C000CB01803211F08091CB011092FC0110928B
:1008D000FB0110928301CF9108950F931F93CF9343
:1008E0008C01C62F0E9408046C2F6460C8010E940E
:1008F00008046C2F6B7FC8010E94080483EC90E011
:100900000197F1F7CF911F910F910895FF920F93E7
:100910001F93CF93DF931F92CDB7DEB78C01F62ED6
:10092000962F907F692F642BC80149830E946D0424
:1009300080E1F89EB00111244981642BC8010F9019
:10094000DF91CF911F910F91FF900C946D0440E0C7
:1009500061E88EED92E00C94860441E00E948604EA
:1009600081E090E00895009769F0FC01019000207B
:10097000E9F73197AF01481B590BBC018EED92E0AE
:100980000C94A60080E090E008958F929F92AF9221
:10099000BF920F931F93CF93DF93CDB7DEB7A1978D
:1009A0000FB6F894DEBF0FBECDBF19A2423008F4D7
:1009B0004AE08E010F5D1F4F842E912CA12CB12C8B
:1009C000A50194010E94BE0EE62FB901CA01015093
:1009D0001109EA3014F4E05D01C0E95CD801EC9340
:1009E000232B242B252B61F7C8010E94B304A19669
:1009F0000FB6F894DEBF0FBECDBFDF91CF911F9130
:100A00000F91BF90AF909F908F9008958F929F927B
:100A1000AF92BF92CF92DF92EF92FF92CF93DF938C
:100A20006B017C019B01AC010E94820E882319F0AE
:100A30008CE291E027C046015701E894B7F82FEF08
:100A40003FEF4FE75FE7C501B4010E94820E8111BD
:100A50000DC02FEF3FEF4FE75FE7C501B4010E94E4
:100A6000B10C18161CF480E391E00CC02FEF3FEF9F
:100A70004FE75FE4C701B6010E94100E181674F428
:100A800084E391E0DF91CF91FF90EF90DF90CF90E2
:100A9000BF90AF909F908F900C94B3042FEF3FEFD7
:100AA0004FE75FECC701B6010E94B10C87FDE8CFAC
:100AB00020E030E0A901C701B6010E94B10C87FF18
:100AC00011C0E091DE02F091DF020190F081E02D93
:100AD0006DE28EED92E00995EC01F7FAF094F7F8EB
:100AE000F09402C0C0E0D0E02AE037ED43EA5BE3D7
:100AF000C701B6010E94450C4B015C010E942F0DFD
:100B00006B017C010E945E0D9B01AC01C501B4012B
:100B10000E94440C4B015C014AE0C701B6010E94EF
:100B2000C504C80FD91F88E391E00E94B304C80F21
:100B3000D91F20E030E040E251E4C501B4010E9439
:100B4000150E4B015C010E942F0D6B01E12CF12C65
:100B50004AE0C701B6010E94C504C80FD91FC701EA
:100B6000B6010E945E0D9B01AC01C501B4010E945B
:100B7000440C20E030E040E251E40E94150E0E9457
:100B80002F0D80E090E04AE00E94C5048C0F9D1F6D
:100B9000DF91CF91FF90EF90DF90CF90BF90AF901B
:100BA0009F908F9008950E94870E1F920F920FB60C
:100BB0000F9211242F933F934F935F936F937F93E3
:100BC0008F939F93AF93BF93EF93FF9389E292E04C
:100BD0000E940901FF91EF91BF91AF919F918F9179
:100BE0007F916F915F914F913F912F910F900FBE29
:100BF0000F901F9018951F920F920FB60F9211240D
:100C00002F938F939F93EF93FF93E0913902F0918D
:100C10003A028081E0913F02F091400282FD12C0D1
:100C20009081809142028F5F8F73209143028217DF
:100C300051F0E0914202F0E0E75DFD4F958F809327
:100C4000420201C08081FF91EF919F918F912F917E
:100C50000F900FBE0F901F9018951F920F920FB616
:100C60000F9211242F933F938F939F93AF93BF9332
:100C70008091F0019091F101A091F201B091F30106
:100C80003091EF0123E0230F2D3720F40196A11DB1
:100C9000B11D05C026E8230F0296A11DB11D2093AA
:100CA000EF018093F0019093F101A093F201B093D2
:100CB000F3018091F4019091F501A091F601B091BA
:100CC000F7010196A11DB11D8093F4019093F501E8
:100CD000A093F601B093F701BF91AF919F918F91CF
:100CE0003F912F910F900FBE0F901F9018951F925C
:100CF0000F920FB60F9211242F933F934F935F9350
:100D00006F937F938F939F93AF93BF93EF93FF93D3
:100D10008091B900887F803609F49CC068F58832DC
:100D200009F45BC090F4803109F454C038F488238E
:100D300009F4F6C0883009F44DC0F6C0883109F4D2
:100D40004CC0803209F45DC0EFC0803409F468C043
:100D500048F4803309F455C0883309F0E5C0809326
:100D6000CB01D8C0803509F44FC0883509F45DC087
:100D7000883409F0D9C0D6C0883909F4C7C0A8F4AE
:100D8000883709F467C038F4883609F463C08037BF
:100D900009F460C0C9C0883809F4B8C0803909F4C2
:100DA0005FC0803809F0C0C05BC0803B09F486C0DA
:100DB00038F4803A09F466C0883A09F47FC0B4C0B8
:100DC000803C09F4A7C0883C09F4A4C0883B09F41E
:100DD0008AC0AAC08091EE0110C09091ED0180916F
:100DE000EC01981770F5E091ED0181E08E0F809392
:100DF000ED01F0E0E453FE4F80818093BB0085EC71
:100E000086C08093CB018EC0E091ED0181E08E0F12
:100E10008093ED018091BB00F0E0E453FE4F8083AE
:100E20009091ED018091EC016EC0E091ED0181E0C7
:100E30008E0F8093ED018091BB00F0E0E453FE4FF4
:100E400080838091F90181116DC081E08093F80168
:100E500084EA61C083E08093FA011092CA01CFCF87
:100E60008091CA01803208F051C0E091CA0181E04E
:100E70008E0F8093CA018091BB00F0E0E655FE4FD3
:100E80008083BDCF85EC8093BC001092FA018091E5
:100E9000CA01803230F4E091CA01F0E0E655FE4F1D
:100EA00010826091CA0170E0E091A801F091A9015F
:100EB0008AEA91E009951092CA0136C084E08093D5
:100EC000FA011092A7011092A601E091A401F091FD
:100ED000A50109958091A601811105C081E080934B
:100EE000A60110928401E091A70181E08E0F80930A
:100EF000A701F0E0EC57FE4F80818093BB009091FA
:100F0000A7018091A601981708F479CF85E880930E
:100F1000BC000AC085EC8093BC001092FA0104C0AA
:100F20001092CB010E944802FF91EF91BF91AF91C7
:100F30009F918F917F916F915F914F913F912F91F1
:100F40000F900FBE0F901F9018951F920F920FB623
:100F50000F9211242F933F934F935F936F937F933F
:100F60008F939F93AF93BF93EF93FF9380913D0136
:100F700087FF05C010928500109284001BC020914D
:100F80003D01022E000C330B80913E0190E02817AA
:100F9000390784F480913D01082E000C990BFC0167
:100FA000EE0FFF1F8E0F9F1FFC01E15CFE4F808143
:100FB00086FD15C080913D018F5F80933D0120919A
:100FC0003D01022E000C330B80913E0190E028176A
:100FD0003907C4F480913D018C3064F113C08091D5
:100FE0003D01082E000C990BFC01EE0FFF1F8E0F28
:100FF0009F1FFC01E15CFE4F808160E08F730E94C7
:101000009D01D8CF80918400909185000496803412
:101010009C4918F480E49CE905C08091840090917B
:101020008500049690938900809388008FEF8093C9
:101030003D013BC0209184003091850080913D01AD
:10104000082E000C990BFC01EE0FFF1F8E0F9F1F47
:10105000FC01E15CFE4F81819281820F931F90938E
:1010600089008093880080913D01082E000C990B27
:10107000FC01EE0FFF1F8E0F9F1FFC01E15CFE4F76
:10108000808186FF12C080913D01082E000C990BD3
:10109000FC01EE0FFF1F8E0F9F1FFC01E15CFE4F56
:1010A000808161E08F730E949D01FF91EF91BF915C
:1010B000AF919F918F917F916F915F914F913F91F0
:1010C0002F910F900FBE0F901F901895E9E2F2E05C
:1010D0001382128288EE93E0A0E0B0E084839583CF
:1010E000A683B78328E031E03183208325EC30E00C
:1010F0003587248724EC30E03787268720EC30E0E2
:10110000318B208B21EC30E0338B228B22EC30E0D2
:10111000358B248B26EC30E0378B268B118E128E8C
:10112000138E148EE6ECF2E0138212828483958390
:10113000A683B78388E191E091838083EEEDF2E0AE
:101140001382128288E291E09183808387E2848314
:1011500080E1808782E08187128688E083878BED3B
:1011600092E00E94EC0388ED92E00E94EC0385ED92
:1011700092E00E94EC0382ED92E00C94EC03CF939A
:10118000DF9300D000D0CDB7DEB7789484B582600D
:1011900084BD84B5816084BD85B5826085BD85B51B
:1011A000816085BD80916E00816080936E00109299
:1011B0008100809181008260809381008091810014
:1011C00081608093810080918000816080938000A5
:1011D0008091B10084608093B1008091B000816003
:1011E0008093B00080917A00846080937A0080912F
:1011F0007A00826080937A0080917A008160809387
:101200007A0080917A00806880937A001092C10001
:101210001092FE011092FD011092FC011092FB0150
:101220001092FA0181E08093F9011092F80161E0D7
:1012300082E10E949D0161E083E10E949D01809115
:10124000B9008E7F8093B9008091B9008D7F809323
:10125000B90088E48093B80085E48093BC001092C4
:10126000E3028091E702823018F098E09093E30265
:101270009091E802992339F0813029F48091E302BA
:1012800084608093E30262E370E080E090E00E947B
:101290000E026091E9028EED92E00E94080468EE71
:1012A00073E080E090E00E940E0260E38EED92E039
:1012B0000E946D040BE416E4C8010197F1F760E3A6
:1012C0008EED92E00E946D04C8010197F1F760E392
:1012D0008EED92E00E946D0483E592E00197F1F7B4
:1012E00060E28EED92E00E946D046091E302606224
:1012F00040E08EED92E00E94860484E08093E40258
:1013000040E06CE08EED92E00E94860440E061E0F7
:101310008EED92E00E9486048BE3E82E8FE1F82E9A
:10132000C7010197F1F712E01093E50240E066E093
:101330008EED92E00E94860440E062E08EED92E045
:101340000E948604C7010197F1F7E0913902F091FC
:101350003A021083E0913502F09136021082E0915A
:101360003702F09138028FEC808310924102E091B5
:101370003D02F0913E0286E08083E0913B02F091D5
:101380003C02808180618083E0913B02F0913C02CD
:10139000808188608083E0913B02F0913C028081F3
:1013A00080688083E0913B02F0913C0280818F7DD8
:1013B00080838DE00E9487006BE070E08BED92E00F
:1013C0000E9482036AE070E088ED92E00E9482034E
:1013D00069E070E085ED92E00E94820366E070E0D3
:1013E00082ED92E00E94820389E292E00E94F30083
:1013F000181619060CF057C189E292E00E94D1003C
:10140000853F910509F0BCC089E292E00E94D100BD
:101410005C01909328028093270289E292E00E9467
:10142000D1002C01909326028093250289E292E05C
:101430000E94D1007C01909324028093230289E2D0
:1014400092E00E94D100AC0190932202809321028D
:1014500089E292E04B835C830E94D1003C0190932F
:10146000200280931F0289E292E00E94D1008C0149
:1014700090931E0280931D0289E292E00E94D100A7
:101480001C0190931C0280931B0289E292E00E944F
:10149000D1004C0190931A028093190289E292E0E4
:1014A0000E94D1009C019093180280931702B20110
:1014B0006E0D7F1D072E000C880B990B29833A8334
:1014C0000E94600D6B017C01609313027093140203
:1014D0008093150290931602B301600F711F072EBF
:1014E000000C880B990B0E94600D2B013C0160934E
:1014F0000F027093100280931102909312022981BF
:101500003A81280D391DB901330F880B990B0E94C0
:10151000600D60930B0270930C0280930D02909308
:101520000E024B815C81AA94AB2859F49701860185
:101530003058009313021093140220931502309335
:1015400016024130510561F477FA709477F870947F
:1015500040920F0250921002609211027092120299
:101560002A94232809F040CFDC01CB01B0588093A6
:101570000B0290930C02A0930D02B0930E0234CF95
:1015800089E292E00E94D100863F910509F02CCFBC
:1015900089E292E00E94D100909328028093270272
:1015A00089E292E00E94D1004C0190932602809340
:1015B000250289E292E00E94D1006C0190932402FE
:1015C0008093230289E292E00E94D100909322024C
:1015D0008093210289E292E00E94D1005C01909305
:1015E000200280931F0289E292E00E94D1008C01C8
:1015F00090931E0280931D0289E292E00E94D10026
:1016000090931C0280931B0289E292E00E94D10019
:101610007C0190931A028093190289E292E00E9461
:10162000D1003C019093180280931702C80CD91C7A
:10163000662777276C197D09072E000C880B990BFC
:101640000E94600D60931302709314028093150240
:10165000909316020A0D1B1D66277727601B710BDE
:10166000072E000C880B990B0E94600D60930F02EF
:10167000709310028093110290931202E60CF71CF3
:10168000662777276E197F09072E000C880B990BA8
:101690000E94600D60930B0270930C0280930D0208
:1016A00090930E02A1CE209113023091140240912A
:1016B00015025091160260E070E084E393E40E940A
:1016C000440C609307027093080280930902909380
:1016D0000A0200910F021091100220911102309124
:1016E0001202009303021093040220930502309328
:1016F000060200910B0210910C0220910D02309114
:101700000E020093FF011093000220930102309318
:10171000020269837A838B839C830E94A704698178
:101720007A818B819C810E9406058AE391E00E9468
:10173000B3046091030270910402809105029091BC
:1017400006020E9406058AE391E00E94B3046091BC
:10175000FF017091000280910102909102020E94AB
:1017600006050E94A70460E08DE00E949D0164E6EA
:1017700070E080E090E00E940E0220EF37EA4AEC31
:1017800050E46091070270910802809109029091E3
:101790000A020E94440C2DEC3CEC4CE85FE30E94F2
:1017A000B60C2B013C0160930702709308028093F2
:1017B000090290930A0226ED35EC4DE55FE3609156
:1017C00003027091040280910502909106020E942A
:1017D000150E28E431EE4EE951E40E94440C4B0111
:1017E0005C0160930302709304028093050290935E
:1017F000060223EC35EF48EC5FE36091FF01709146
:10180000000280910102909102020E94150E2EEAC0
:1018100037E440E052E40E94450C6B017C01609388
:10182000FF01709300028093010290930202C301B2
:10183000B2010E94280D8BED92E00E94FF02C501CB
:10184000B4010E94280D88ED92E00E94FF02C701BA
:10185000B6010E94280D85ED92E00E94FF020E94D1
:101860009301C2CD991B79E004C0991F961708F027
:10187000961B881F7A95C9F780950895EE0FFF1F74
:101880000590F491E02D09945058BB27AA270E9497
:101890005C0C0C94D60D0E94C80D38F00E94CF0D40
:1018A00020F039F49F3F19F426F40C94C50D0EF482
:1018B000E095E7FB0C94BF0DE92F0E94E70D58F36C
:1018C000BA17620773078407950720F079F4A6F525
:1018D0000C94090E0EF4E0950B2EBA2FA02D0B01DF
:1018E000B90190010C01CA01A0011124FF27591B65
:1018F00099F0593F50F4503E68F11A16F040A22F6B
:10190000232F342F4427585FF3CF469537952795DB
:10191000A795F0405395C9F77EF41F16BA0B620BDA
:10192000730B840BBAF09150A1F0FF0FBB1F661F21
:10193000771F881FC2F70EC0BA0F621F731F841F64
:1019400048F4879577956795B795F7959E3F08F08A
:10195000B0CF9395880F08F09927EE0F979587954C
:1019600008950E949B0D08F481E008950E94CA0C1E
:101970000C94D60D0E94CF0D58F00E94C80D40F077
:1019800029F45F3F29F00C94BF0D51110C940A0EFD
:101990000C94C50D0E94E70D68F39923B1F355230C
:1019A00091F3951B550BBB27AA2762177307840772
:1019B00038F09F5F5F4F220F331F441FAA1FA9F308
:1019C00035D00E2E3AF0E0E832D091505040E695F6
:1019D000001CCAF72BD0FE2F29D0660F771F881F57
:1019E000BB1F261737074807AB07B0E809F0BB0B4A
:1019F000802DBF01FF2793585F4F3AF09E3F51055E
:101A000078F00C94BF0D0C940A0E5F3FE4F3983EFF
:101A1000D4F3869577956795B795F7959F5FC9F746
:101A2000880F911D9695879597F90895E1E0660FC7
:101A3000771F881FBB1F621773078407BA0720F040
:101A4000621B730B840BBA0BEE1F88F7E0950895A9
:101A50000E942F0D6894B1110C940A0E08950E94F3
:101A6000EF0D88F09F5798F0B92F9927B751B0F034
:101A7000E1F0660F771F881F991F1AF0BA95C9F712
:101A800014C0B13091F00E94090EB1E008950C9499
:101A9000090E672F782F8827B85F39F0B93FCCF34C
:101AA000869577956795B395D9F73EF4909580958F
:101AB000709561957F4F8F4F9F4F0895E89409C0AF
:101AC00097FB3EF490958095709561957F4F8F4F71
:101AD0009F4F9923A9F0F92F96E9BB279395F69587
:101AE000879577956795B795F111F8CFFAF4BB0F05
:101AF00011F460FF1BC06F5F7F4F8F4F9F4F16C069
:101B0000882311F096E911C0772321F09EE8872FF2
:101B1000762F05C0662371F096E8862F70E060E0AE
:101B20002AF09A95660F771F881FDAF7880F969527
:101B3000879597F90895990F0008550FAA0BE0E8CB
:101B4000FEEF16161706E807F907C0F0121613067F
:101B5000E407F50798F0621B730B840B950B39F4BF
:101B60000A2661F0232B242B252B21F408950A2625
:101B700009F4A140A6958FEF811D811D089597F965
:101B80009F6780E870E060E008959FEF80EC089523
:101B900000240A941616170618060906089500244C
:101BA0000A9412161306140605060895092E0394C6
:101BB000000C11F4882352F0BB0F40F4BF2B11F43A
:101BC00060FF04C06F5F7F4F8F4F9F4F089557FD99
:101BD0009058440F551F59F05F3F71F04795880F9B
:101BE00097FB991F61F09F3F79F087950895121632
:101BF00013061406551FF2CF4695F1DF08C01616DE
:101C000017061806991FF1CF86957105610508948E
:101C10000895E894BB2766277727CB0197F90895A5
:101C20000E949B0D08F48FEF08950E94280E0C94DB
:101C3000D60D0E94C80D38F00E94CF0D20F09523DC
:101C400011F00C94BF0D0C94C50D11240C940A0EC8
:101C50000E94E70D70F3959FC1F3950F50E0551F5B
:101C6000629FF001729FBB27F00DB11D639FAA27F1
:101C7000F00DB11DAA1F649F6627B00DA11D661F40
:101C8000829F2227B00DA11D621F739FB00DA11D61
:101C9000621F839FA00D611D221F749F3327A00D1B
:101CA000611D231F849F600D211D822F762F6A2FB7
:101CB00011249F5750409AF0F1F088234AF0EE0F1C
:101CC000FF1FBB1F661F771F881F91505040A9F749
:101CD0009E3F510580F00C94BF0D0C940A0E5F3F9F
:101CE000E4F3983ED4F3869577956795B795F79585
:101CF000E7959F5FC1F7FE2B880F911D96958795FD
:101D000097F908950E949B0D880B990B089581E027
:101D100090E0F8940C94EF0E052E97FB1EF40094BF
:101D20000E94A30E57FD07D00E94BE0E07FC03D0F1
:101D30004EF40C94A30E50954095309521953F4F4D
:101D40004F4F5F4F089590958095709561957F4FA7
:101D50008F4F9F4F08950E94E00EA59F900DB49F56
:101D6000900DA49F800D911D11240895B7FF0C9430
:101D7000AB0E0E94AB0E821B930B0895A1E21A2EAC
:101D8000AA1BBB1BFD010DC0AA1FBB1FEE1FFF1F1F
:101D9000A217B307E407F50720F0A21BB30BE40B6F
:101DA000F50B661F771F881F991F1A9469F76095B6
:101DB0007095809590959B01AC01BD01CF01089570
:101DC000A29FB001B39FC001A39F700D811D11247C
:101DD000911DB29F700D811D1124911D0895F894DD
:021DE000FFCF33
:101DE20001000000000000002A01A600F300D1005B
:101DF200E500710100000000D002A00298028902F1
:101E02007B027A0200000000AD04A6006E616E0043
:0C1E1200696E66006F7666002E002000EE
:00000001FF
