:040000000C944F000D
:100004000C9400000C9400000C9400000C9400006C
:100014000C9400000C9400000C9400000C9400005C
:100024000C9400000C9400000C9400000C9400004C
:100034000C9400000C9400000C9400000C9400003C
:100044000C9400000C9400000C9400000C9400002C
:100054000C9400000C9400000C9400000C9400001C
:100064000C9400000C9400000C9400000C9400000C
:100074000C9400000C9400000C9400000C940000FC
:100084000C9400000C9400001027E80364000A009C
:1000940001000010000110000100F894EE27ECBBF1
:1000A400F1E0F5BFE5BFE0936C008DE0A2E0BB2773
:1000B400ED938A95E9F780E090E1A0E0B1E0ED935B
:1000C4000197E9F78BBFEFEFEDBFE0E1EEBFC0E0D2
:1000D400D5E00C94A7000E94620110C007C00E94E2
:1000E40062010CC003C00E94620108C00E940D039B
:1000F4000E94FE020E94A101F9BDE8BD2496089564
:100104000E940D032497AC81BD818E819F81E0E024
:10011400F0E064E373E40E94AB02A0E0B0E080E8A6
:100124009FE30E940D02A0E0B0E08AE794E40E94FD
:100134005D02DF01CB01E0E0F0E060E070E40E94EA
:10014400AB020E940803289608956B97E0E0EBBB8E
:10015400EABBE8BBEFEFE7BBE0E0E5BBE4BBE2BB37
:10016400E1BBE3B9E2B9E0936200E0936100E0939C
:100174006500E0936400E0BFE3BFE2BFE1BFE2EAF1
:10018400EFBDECE1EEBDE0E0EDBDECBDE6E3E7BDC7
:10019400E0E0E6BDEBBDEABDE9BDE8BDE093790072
:1001A400E0937800E5BDE4BDE3BDE0938B00E0930C
:1001B4008A00E0938900E0938800E0938100E09353
:1001C4008000E0938700E0938600E0938500E0934D
:1001D4008400E0938300E0938200E0936A00EABF26
:1001E400E9BFE7BFE0937D00EBB9E8E1EAB9E6E0F7
:1001F400E0939500E0E0E0939000E3E3E9B9E0E008
:10020400E0939A00E0E8E8B9E0E0E0BDE6B9EDB9D2
:10021400E093740051D0E88FA88DA53F09F04AC03F
:100224004BD03E2F0E946B01EC8BFD8B6E8B7F8B32
:10023400AC89BD898E899F894EDF3ED02E2F0E94C6
:100244006B01E88BF98B6A8B7B8BA889B9898A89C6
:100254009B8944DF31D05E2F0E946B01EC87FD87C0
:100264006E877F87AC85BD858E859F8538DF24D0DA
:100274004E2F0E946B01E887F9876A877B87A885E0
:10028400B9858A859B852EDF17D0EA8F0E946B0182
:10029400EC83FD836E837F83AC81BD818E819F81DE
:1002A40022DF0AD0E98F0E946B010E9408030E949A
:1002B40003031CDFAFCFFFCF5F9BFECFECB10895EC
:1002C4000E940D030E94FE020E94A101FBBDEABD33
:1002D4000895FF27662777270E94DA01DF01CB0103
:1002E4000C948200552342F4503811F4E0FF04C00A
:1002F4003196691F791F6BF050E8572711F45F930B
:10030400C8C05F3F31F0660F000C57956795752F95
:1003140008955F9300200AF0C8C0C1C050E8192EA8
:100324001522880F991F9527550F879550E8072E9A
:100334000522660F771F7527550F679508956894F2
:1003440001C0E8945F93F2DF703818F07F3F08F43F
:10035400A0C056E1571BAAF4519558300EF45930F9
:1003640030F0EFEFFFEF6FEF7FE777F91AC07727F1
:100374005523B9F0EE0FFF1F661F771F5A95D1F76B
:1003840010C07727583028F0EF2FF62F672F5850DA
:10039400F9CF552331F076956795F795E7955A95FA
:1003A400D1F700200AF41AD15F910895689401C02E
:1003B400E894309760407040B1F0002426F0772331
:1003C40012F400940BD1172E7EE1112032F07A95AD
:1003D400EE0FFF1F661F111CF9CFEF2FF62F612DB3
:1003E4005F938ADF5F9108954F93AF01FD01DA01B6
:1003F400AB01BC01CA01402D012C142E4F9108956C
:10040400EA0FFB1F681F0895E095F0956095EF5F74
:10041400FF4F6F4F08955F9381DF903839F1703843
:1004240021F1572F591B2BF112F4DEDFFACF58318B
:1004340018F0AA27BB278827583028F0AB2FB82FED
:1004440088275850F9CF552329F08695B795A79555
:100454005A95D9F7502D512572F0D2DF38F46795AB
:10046400F795E795739513F420C0BEDF45DF5F91E0
:100474000895D8F7FBCFEA1BFB0B680B51F010F47F
:100484000094C2DF662392F3EE0FFF1F661F7A9576
:10049400CBF7EE27FF27662777275F910895EFEFC5
:1004A400FFEF6FE77FEF5F910895EFEFFFEF6FE7E7
:1004B4007FE75F9108955F9331DF703851F390388F
:1004C40041F301240894791F23F41CF300203AF328
:1004D400ECCF0F921F932F933F934F931127222713
:1004E4009927689FA0018F9F302D410D591F6B9F45
:1004F400300D411D591F8E9F27D0BF9F25D06A9F65
:1005040023D0BE9F1DD0AF9F1BD0AE9F110D291FBE
:10051400391F491F591FE32FF42F652F522F4F9175
:100524003F912F911F910F9066232AF0550FEE1FD4
:10053400FF1F661F02C073954BF2D4DE5F910895CE
:10054400100D211D391F02C0200D311D491F591FD7
:1005540008955F93E3DE703821F411200AF49FCFED
:10056400A4CF903809F495CF01240894970B1BF479
:10057400D4F30020F3CF792F1F932F933F934F93FE
:1005840011241127222733274427552790E2AE1739
:10059400BF078607410730F0AE1BBF0B860B410B2C
:1005A400089401C08894551F221F331F111CAA1FD1
:1005B400BB1F881F441F9A9551F7F901612D4F9174
:1005C4003F912F911F91662332F0550FEE1FFF1FAD
:1005D400661F7A9543F286DE5F910895F0956095E3
:1005E4007095E195FF4F6F4F7F4F0895FE2FFF0FDA
:1005F400FF0B6F2F7F2F0895E881F9816A817B813A
:100604000895A881B9818A819B810895E883F9833B
:100614006A837B8308959A938A93BA93AA930895DD
:00000001FF
